{
  "contractName": "SunRouter",
  "abi": [
    {
      "inputs": [
        {
          "internalType": "address",
          "name": "_factory",
          "type": "address"
        },
        {
          "internalType": "address",
          "name": "_WETH",
          "type": "address"
        }
      ],
      "stateMutability": "nonpayable",
      "type": "constructor"
    },
    {
      "anonymous": false,
      "inputs": [
        {
          "indexed": true,
          "internalType": "address",
          "name": "previousOwner",
          "type": "address"
        },
        {
          "indexed": true,
          "internalType": "address",
          "name": "newOwner",
          "type": "address"
        }
      ],
      "name": "OwnershipTransferred",
      "type": "event"
    },
    {
      "inputs": [],
      "name": "MASK",
      "outputs": [
        {
          "internalType": "uint256",
          "name": "",
          "type": "uint256"
        }
      ],
      "stateMutability": "view",
      "type": "function",
      "constant": true
    },
    {
      "inputs": [],
      "name": "WETH",
      "outputs": [
        {
          "internalType": "address",
          "name": "",
          "type": "address"
        }
      ],
      "stateMutability": "view",
      "type": "function",
      "constant": true
    },
    {
      "inputs": [],
      "name": "factory",
      "outputs": [
        {
          "internalType": "address",
          "name": "",
          "type": "address"
        }
      ],
      "stateMutability": "view",
      "type": "function",
      "constant": true
    },
    {
      "inputs": [],
      "name": "owner",
      "outputs": [
        {
          "internalType": "address",
          "name": "",
          "type": "address"
        }
      ],
      "stateMutability": "view",
      "type": "function",
      "constant": true
    },
    {
      "inputs": [],
      "name": "renounceOwnership",
      "outputs": [],
      "stateMutability": "nonpayable",
      "type": "function"
    },
    {
      "inputs": [
        {
          "internalType": "address",
          "name": "newOwner",
          "type": "address"
        }
      ],
      "name": "transferOwnership",
      "outputs": [],
      "stateMutability": "nonpayable",
      "type": "function"
    },
    {
      "stateMutability": "payable",
      "type": "receive",
      "payable": true
    },
    {
      "inputs": [
        {
          "internalType": "address",
          "name": "tokenA",
          "type": "address"
        },
        {
          "internalType": "address",
          "name": "tokenB",
          "type": "address"
        },
        {
          "internalType": "uint256",
          "name": "amountADesired",
          "type": "uint256"
        },
        {
          "internalType": "uint256",
          "name": "amountBDesired",
          "type": "uint256"
        },
        {
          "internalType": "uint256",
          "name": "amountAMin",
          "type": "uint256"
        },
        {
          "internalType": "uint256",
          "name": "amountBMin",
          "type": "uint256"
        },
        {
          "internalType": "address",
          "name": "to",
          "type": "address"
        },
        {
          "internalType": "uint256",
          "name": "deadline",
          "type": "uint256"
        }
      ],
      "name": "addLiquidity",
      "outputs": [
        {
          "internalType": "uint256",
          "name": "amountA",
          "type": "uint256"
        },
        {
          "internalType": "uint256",
          "name": "amountB",
          "type": "uint256"
        },
        {
          "internalType": "uint256",
          "name": "liquidity",
          "type": "uint256"
        }
      ],
      "stateMutability": "nonpayable",
      "type": "function"
    },
    {
      "inputs": [
        {
          "internalType": "address",
          "name": "token",
          "type": "address"
        },
        {
          "internalType": "uint256",
          "name": "amountTokenDesired",
          "type": "uint256"
        },
        {
          "internalType": "uint256",
          "name": "amountTokenMin",
          "type": "uint256"
        },
        {
          "internalType": "uint256",
          "name": "amountETHMin",
          "type": "uint256"
        },
        {
          "internalType": "address",
          "name": "to",
          "type": "address"
        },
        {
          "internalType": "uint256",
          "name": "deadline",
          "type": "uint256"
        }
      ],
      "name": "addLiquidityETH",
      "outputs": [
        {
          "internalType": "uint256",
          "name": "amountToken",
          "type": "uint256"
        },
        {
          "internalType": "uint256",
          "name": "amountETH",
          "type": "uint256"
        },
        {
          "internalType": "uint256",
          "name": "liquidity",
          "type": "uint256"
        }
      ],
      "stateMutability": "payable",
      "type": "function",
      "payable": true
    },
    {
      "inputs": [
        {
          "internalType": "address",
          "name": "tokenA",
          "type": "address"
        },
        {
          "internalType": "address",
          "name": "tokenB",
          "type": "address"
        },
        {
          "internalType": "uint256",
          "name": "liquidity",
          "type": "uint256"
        },
        {
          "internalType": "uint256",
          "name": "amountAMin",
          "type": "uint256"
        },
        {
          "internalType": "uint256",
          "name": "amountBMin",
          "type": "uint256"
        },
        {
          "internalType": "address",
          "name": "to",
          "type": "address"
        },
        {
          "internalType": "uint256",
          "name": "deadline",
          "type": "uint256"
        }
      ],
      "name": "removeLiquidity",
      "outputs": [
        {
          "internalType": "uint256",
          "name": "amountA",
          "type": "uint256"
        },
        {
          "internalType": "uint256",
          "name": "amountB",
          "type": "uint256"
        }
      ],
      "stateMutability": "nonpayable",
      "type": "function"
    },
    {
      "inputs": [
        {
          "internalType": "address",
          "name": "token",
          "type": "address"
        },
        {
          "internalType": "uint256",
          "name": "liquidity",
          "type": "uint256"
        },
        {
          "internalType": "uint256",
          "name": "amountTokenMin",
          "type": "uint256"
        },
        {
          "internalType": "uint256",
          "name": "amountETHMin",
          "type": "uint256"
        },
        {
          "internalType": "address",
          "name": "to",
          "type": "address"
        },
        {
          "internalType": "uint256",
          "name": "deadline",
          "type": "uint256"
        }
      ],
      "name": "removeLiquidityETH",
      "outputs": [
        {
          "internalType": "uint256",
          "name": "amountToken",
          "type": "uint256"
        },
        {
          "internalType": "uint256",
          "name": "amountETH",
          "type": "uint256"
        }
      ],
      "stateMutability": "nonpayable",
      "type": "function"
    },
    {
      "inputs": [
        {
          "internalType": "address",
          "name": "tokenA",
          "type": "address"
        },
        {
          "internalType": "address",
          "name": "tokenB",
          "type": "address"
        },
        {
          "internalType": "uint256",
          "name": "liquidity",
          "type": "uint256"
        },
        {
          "internalType": "uint256",
          "name": "amountAMin",
          "type": "uint256"
        },
        {
          "internalType": "uint256",
          "name": "amountBMin",
          "type": "uint256"
        },
        {
          "internalType": "address",
          "name": "to",
          "type": "address"
        },
        {
          "internalType": "uint256",
          "name": "deadline",
          "type": "uint256"
        },
        {
          "internalType": "bool",
          "name": "approveMax",
          "type": "bool"
        },
        {
          "internalType": "uint8",
          "name": "v",
          "type": "uint8"
        },
        {
          "internalType": "bytes32",
          "name": "r",
          "type": "bytes32"
        },
        {
          "internalType": "bytes32",
          "name": "s",
          "type": "bytes32"
        }
      ],
      "name": "removeLiquidityWithPermit",
      "outputs": [
        {
          "internalType": "uint256",
          "name": "amountA",
          "type": "uint256"
        },
        {
          "internalType": "uint256",
          "name": "amountB",
          "type": "uint256"
        }
      ],
      "stateMutability": "nonpayable",
      "type": "function"
    },
    {
      "inputs": [
        {
          "internalType": "address",
          "name": "token",
          "type": "address"
        },
        {
          "internalType": "uint256",
          "name": "liquidity",
          "type": "uint256"
        },
        {
          "internalType": "uint256",
          "name": "amountTokenMin",
          "type": "uint256"
        },
        {
          "internalType": "uint256",
          "name": "amountETHMin",
          "type": "uint256"
        },
        {
          "internalType": "address",
          "name": "to",
          "type": "address"
        },
        {
          "internalType": "uint256",
          "name": "deadline",
          "type": "uint256"
        },
        {
          "internalType": "bool",
          "name": "approveMax",
          "type": "bool"
        },
        {
          "internalType": "uint8",
          "name": "v",
          "type": "uint8"
        },
        {
          "internalType": "bytes32",
          "name": "r",
          "type": "bytes32"
        },
        {
          "internalType": "bytes32",
          "name": "s",
          "type": "bytes32"
        }
      ],
      "name": "removeLiquidityETHWithPermit",
      "outputs": [
        {
          "internalType": "uint256",
          "name": "amountToken",
          "type": "uint256"
        },
        {
          "internalType": "uint256",
          "name": "amountETH",
          "type": "uint256"
        }
      ],
      "stateMutability": "nonpayable",
      "type": "function"
    },
    {
      "inputs": [
        {
          "internalType": "address",
          "name": "token",
          "type": "address"
        },
        {
          "internalType": "uint256",
          "name": "liquidity",
          "type": "uint256"
        },
        {
          "internalType": "uint256",
          "name": "amountTokenMin",
          "type": "uint256"
        },
        {
          "internalType": "uint256",
          "name": "amountETHMin",
          "type": "uint256"
        },
        {
          "internalType": "address",
          "name": "to",
          "type": "address"
        },
        {
          "internalType": "uint256",
          "name": "deadline",
          "type": "uint256"
        }
      ],
      "name": "removeLiquidityETHSupportingFeeOnTransferTokens",
      "outputs": [
        {
          "internalType": "uint256",
          "name": "amountETH",
          "type": "uint256"
        }
      ],
      "stateMutability": "nonpayable",
      "type": "function"
    },
    {
      "inputs": [
        {
          "internalType": "address",
          "name": "token",
          "type": "address"
        },
        {
          "internalType": "uint256",
          "name": "liquidity",
          "type": "uint256"
        },
        {
          "internalType": "uint256",
          "name": "amountTokenMin",
          "type": "uint256"
        },
        {
          "internalType": "uint256",
          "name": "amountETHMin",
          "type": "uint256"
        },
        {
          "internalType": "address",
          "name": "to",
          "type": "address"
        },
        {
          "internalType": "uint256",
          "name": "deadline",
          "type": "uint256"
        },
        {
          "internalType": "bool",
          "name": "approveMax",
          "type": "bool"
        },
        {
          "internalType": "uint8",
          "name": "v",
          "type": "uint8"
        },
        {
          "internalType": "bytes32",
          "name": "r",
          "type": "bytes32"
        },
        {
          "internalType": "bytes32",
          "name": "s",
          "type": "bytes32"
        }
      ],
      "name": "removeLiquidityETHWithPermitSupportingFeeOnTransferTokens",
      "outputs": [
        {
          "internalType": "uint256",
          "name": "amountETH",
          "type": "uint256"
        }
      ],
      "stateMutability": "nonpayable",
      "type": "function"
    },
    {
      "inputs": [
        {
          "internalType": "uint256",
          "name": "amountIn",
          "type": "uint256"
        },
        {
          "internalType": "uint256",
          "name": "amountOutMin",
          "type": "uint256"
        },
        {
          "internalType": "address[]",
          "name": "path",
          "type": "address[]"
        },
        {
          "internalType": "address",
          "name": "to",
          "type": "address"
        },
        {
          "internalType": "uint256",
          "name": "deadline",
          "type": "uint256"
        }
      ],
      "name": "swapExactTokensForTokens",
      "outputs": [
        {
          "internalType": "uint256[]",
          "name": "amounts",
          "type": "uint256[]"
        }
      ],
      "stateMutability": "nonpayable",
      "type": "function"
    },
    {
      "inputs": [
        {
          "internalType": "uint256",
          "name": "amountOut",
          "type": "uint256"
        },
        {
          "internalType": "uint256",
          "name": "amountInMax",
          "type": "uint256"
        },
        {
          "internalType": "address[]",
          "name": "path",
          "type": "address[]"
        },
        {
          "internalType": "address",
          "name": "to",
          "type": "address"
        },
        {
          "internalType": "uint256",
          "name": "deadline",
          "type": "uint256"
        }
      ],
      "name": "swapTokensForExactTokens",
      "outputs": [
        {
          "internalType": "uint256[]",
          "name": "amounts",
          "type": "uint256[]"
        }
      ],
      "stateMutability": "nonpayable",
      "type": "function"
    },
    {
      "inputs": [
        {
          "internalType": "uint256",
          "name": "amountOutMin",
          "type": "uint256"
        },
        {
          "internalType": "address[]",
          "name": "path",
          "type": "address[]"
        },
        {
          "internalType": "address",
          "name": "to",
          "type": "address"
        },
        {
          "internalType": "uint256",
          "name": "deadline",
          "type": "uint256"
        }
      ],
      "name": "swapExactETHForTokens",
      "outputs": [
        {
          "internalType": "uint256[]",
          "name": "amounts",
          "type": "uint256[]"
        }
      ],
      "stateMutability": "payable",
      "type": "function",
      "payable": true
    },
    {
      "inputs": [
        {
          "internalType": "uint256",
          "name": "amountOut",
          "type": "uint256"
        },
        {
          "internalType": "uint256",
          "name": "amountInMax",
          "type": "uint256"
        },
        {
          "internalType": "address[]",
          "name": "path",
          "type": "address[]"
        },
        {
          "internalType": "address",
          "name": "to",
          "type": "address"
        },
        {
          "internalType": "uint256",
          "name": "deadline",
          "type": "uint256"
        }
      ],
      "name": "swapTokensForExactETH",
      "outputs": [
        {
          "internalType": "uint256[]",
          "name": "amounts",
          "type": "uint256[]"
        }
      ],
      "stateMutability": "nonpayable",
      "type": "function"
    },
    {
      "inputs": [
        {
          "internalType": "uint256",
          "name": "amountIn",
          "type": "uint256"
        },
        {
          "internalType": "uint256",
          "name": "amountOutMin",
          "type": "uint256"
        },
        {
          "internalType": "address[]",
          "name": "path",
          "type": "address[]"
        },
        {
          "internalType": "address",
          "name": "to",
          "type": "address"
        },
        {
          "internalType": "uint256",
          "name": "deadline",
          "type": "uint256"
        }
      ],
      "name": "swapExactTokensForETH",
      "outputs": [
        {
          "internalType": "uint256[]",
          "name": "amounts",
          "type": "uint256[]"
        }
      ],
      "stateMutability": "nonpayable",
      "type": "function"
    },
    {
      "inputs": [
        {
          "internalType": "uint256",
          "name": "amountOut",
          "type": "uint256"
        },
        {
          "internalType": "address[]",
          "name": "path",
          "type": "address[]"
        },
        {
          "internalType": "address",
          "name": "to",
          "type": "address"
        },
        {
          "internalType": "uint256",
          "name": "deadline",
          "type": "uint256"
        }
      ],
      "name": "swapETHForExactTokens",
      "outputs": [
        {
          "internalType": "uint256[]",
          "name": "amounts",
          "type": "uint256[]"
        }
      ],
      "stateMutability": "payable",
      "type": "function",
      "payable": true
    },
    {
      "inputs": [
        {
          "internalType": "uint256",
          "name": "amountIn",
          "type": "uint256"
        },
        {
          "internalType": "uint256",
          "name": "amountOutMin",
          "type": "uint256"
        },
        {
          "internalType": "address[]",
          "name": "path",
          "type": "address[]"
        },
        {
          "internalType": "address",
          "name": "to",
          "type": "address"
        },
        {
          "internalType": "uint256",
          "name": "deadline",
          "type": "uint256"
        }
      ],
      "name": "swapExactTokensForTokensSupportingFeeOnTransferTokens",
      "outputs": [],
      "stateMutability": "nonpayable",
      "type": "function"
    },
    {
      "inputs": [
        {
          "internalType": "uint256",
          "name": "amountOutMin",
          "type": "uint256"
        },
        {
          "internalType": "address[]",
          "name": "path",
          "type": "address[]"
        },
        {
          "internalType": "address",
          "name": "to",
          "type": "address"
        },
        {
          "internalType": "uint256",
          "name": "deadline",
          "type": "uint256"
        }
      ],
      "name": "swapExactETHForTokensSupportingFeeOnTransferTokens",
      "outputs": [],
      "stateMutability": "payable",
      "type": "function",
      "payable": true
    },
    {
      "inputs": [
        {
          "internalType": "uint256",
          "name": "amountIn",
          "type": "uint256"
        },
        {
          "internalType": "uint256",
          "name": "amountOutMin",
          "type": "uint256"
        },
        {
          "internalType": "address[]",
          "name": "path",
          "type": "address[]"
        },
        {
          "internalType": "address",
          "name": "to",
          "type": "address"
        },
        {
          "internalType": "uint256",
          "name": "deadline",
          "type": "uint256"
        }
      ],
      "name": "swapExactTokensForETHSupportingFeeOnTransferTokens",
      "outputs": [],
      "stateMutability": "nonpayable",
      "type": "function"
    }
  ],
  "bytecode": "0x60806040523480156200001157600080fd5b5060405162003c1f38038062003c1f8339810160408190526200003491620000de565b6200003f3362000071565b600180546001600160a01b039384166001600160a01b0319918216179091556002805492909316911617905562000116565b600080546001600160a01b038381166001600160a01b0319831681178455604051919092169283917f8be0079c531659141344cd1fd0a4f28419497f9722a3daafe3b4186f6b6457e09190a35050565b80516001600160a01b0381168114620000d957600080fd5b919050565b60008060408385031215620000f257600080fd5b620000fd83620000c1565b91506200010d60208401620000c1565b90509250929050565b613af980620001266000396000f3fe6080604052600436106101445760003560e01c80638da5cb5b116100b6578063ded9382a1161006f578063ded9382a146103ac578063e8e33700146103cc578063e91f214e14610407578063f2fde38b1461041d578063f305d7191461043d578063fb3bdb411461045057600080fd5b80638da5cb5b146102e7578063ad5c464814610319578063af2979eb14610339578063b6f9de9514610359578063baa2abde1461036c578063c45a01551461038c57600080fd5b80635b0d5984116101085780635b0d5984146102315780635c11d7951461025f578063715018a61461027f578063791ac947146102945780637ff36ab5146102b45780638803dbee146102c757600080fd5b806302751cec1461016a57806318cbafe5146101a45780632195995c146101d157806338ed1739146101f15780634a25d94a1461021157600080fd5b36610165576002546001600160a01b0316331461016357610163613a48565b005b600080fd5b34801561017657600080fd5b5061018a6101853660046134e6565b610463565b604080519283526020830191909152015b60405180910390f35b3480156101b057600080fd5b506101c46101bf3660046136eb565b610530565b60405161019b91906137bb565b3480156101dd57600080fd5b5061018a6101ec3660046133c0565b6107e6565b3480156101fd57600080fd5b506101c461020c3660046136eb565b61089e565b34801561021d57600080fd5b506101c461022c3660046136eb565b61099b565b34801561023d57600080fd5b5061025161024c366004613544565b610a9a565b60405190815260200161019b565b34801561026b57600080fd5b5061016361027a3660046136eb565b610b55565b34801561028b57600080fd5b50610163610db4565b3480156102a057600080fd5b506101636102af3660046136eb565b610e1a565b6101c46102c2366004613660565b610ff8565b3480156102d357600080fd5b506101c46102e23660046136eb565b611287565b3480156102f357600080fd5b506000546001600160a01b03165b6040516001600160a01b03909116815260200161019b565b34801561032557600080fd5b50600254610301906001600160a01b031681565b34801561034557600080fd5b506102516103543660046134e6565b611323565b610163610367366004613660565b611452565b34801561037857600080fd5b5061018a61038736600461334e565b611734565b34801561039857600080fd5b50600154610301906001600160a01b031681565b3480156103b857600080fd5b5061018a6103c7366004613544565b611959565b3480156103d857600080fd5b506103ec6103e736600461346a565b611a1a565b6040805193845260208401929092529082015260600161019b565b34801561041357600080fd5b5061025160001981565b34801561042957600080fd5b50610163610438366004613314565b611b06565b6103ec61044b3660046134e6565b611bd1565b6101c461045e366004613660565b611de1565b60008082428110156104905760405162461bcd60e51b815260040161048790613840565b60405180910390fd5b6002546104ac908a906001600160a01b03168a8a8a308a611734565b90935091506104bc8986856120a6565b600254604051632e1a7d4d60e01b8152600481018490526001600160a01b0390911690632e1a7d4d90602401600060405180830381600087803b15801561050257600080fd5b505af1158015610516573d6000803e3d6000fd5b5050505061052485836121c1565b50965096945050505050565b606081428110156105535760405162461bcd60e51b815260040161048790613840565b6002546001600160a01b0316868661056c6001826139d3565b81811061057b5761057b613a74565b90506020020160208101906105909190613314565b6001600160a01b0316146105b65760405162461bcd60e51b81526004016104879061386c565b6105f38887878080602002602001604051908101604052809392919081815260200183836020028082843760009201919091525061228f92505050565b915086826001845161060591906139d3565b8151811061061557610615613a74565b6020026020010151101561063b5760405162461bcd60e51b8152600401610487906138e5565b6106df8686600081811061065157610651613a74565b90506020020160208101906106669190613314565b336106bf8989600081811061067d5761067d613a74565b90506020020160208101906106929190613314565b8a8a60018181106106a5576106a5613a74565b90506020020160208101906106ba9190613314565b612413565b856000815181106106d2576106d2613a74565b60200260200101516124f7565b61071e82878780806020026020016040519081016040528093929190818152602001838360200280828437600092019190915250309250612627915050565b60025482516001600160a01b0390911690632e1a7d4d908490610743906001906139d3565b8151811061075357610753613a74565b60200260200101516040518263ffffffff1660e01b815260040161077991815260200190565b600060405180830381600087803b15801561079357600080fd5b505af11580156107a7573d6000803e3d6000fd5b505050506107db8483600185516107be91906139d3565b815181106107ce576107ce613a74565b60200260200101516121c1565b509695505050505050565b60008060006107f58e8e612413565b9050600087610804578c610808565b6000195b60405163d505accf60e01b81529091506001600160a01b0383169063d505accf90610843903390309086908f908e908e908e9060040161377a565b600060405180830381600087803b15801561085d57600080fd5b505af1158015610871573d6000803e3d6000fd5b505050506108848f8f8f8f8f8f8f611734565b809450819550505050509b509b9950505050505050505050565b606081428110156108c15760405162461bcd60e51b815260040161048790613840565b6108fe8887878080602002602001604051908101604052809392919081815260200183836020028082843760009201919091525061228f92505050565b915086826001845161091091906139d3565b8151811061092057610920613a74565b602002602001015110156109465760405162461bcd60e51b8152600401610487906138e5565b61095c8686600081811061065157610651613a74565b6107db82878780806020026020016040519081016040528093929190818152602001838360200280828437600092019190915250899250612627915050565b606081428110156109be5760405162461bcd60e51b815260040161048790613840565b6002546001600160a01b031686866109d76001826139d3565b8181106109e6576109e6613a74565b90506020020160208101906109fb9190613314565b6001600160a01b031614610a215760405162461bcd60e51b81526004016104879061386c565b610a5e888787808060200260200160405190810160405280939291908181526020018383602002808284376000920191909152506127ed92505050565b91508682600081518110610a7457610a74613a74565b6020026020010151111561063b5760405162461bcd60e51b8152600401610487906137ff565b6002546000908190610ab6908d906001600160a01b0316612413565b9050600086610ac5578b610ac9565b6000195b60405163d505accf60e01b81529091506001600160a01b0383169063d505accf90610b04903390309086908e908d908d908d9060040161377a565b600060405180830381600087803b158015610b1e57600080fd5b505af1158015610b32573d6000803e3d6000fd5b50505050610b448d8d8d8d8d8d611323565b9d9c50505050505050505050505050565b8042811015610b765760405162461bcd60e51b815260040161048790613840565b610be685856000818110610b8c57610b8c613a74565b9050602002016020810190610ba19190613314565b33610be088886000818110610bb857610bb8613a74565b9050602002016020810190610bcd9190613314565b898960018181106106a5576106a5613a74565b8a6124f7565b60008585610bf56001826139d3565b818110610c0457610c04613a74565b9050602002016020810190610c199190613314565b6040516370a0823160e01b81526001600160a01b03868116600483015291909116906370a082319060240160206040518083038186803b158015610c5c57600080fd5b505afa158015610c70573d6000803e3d6000fd5b505050506040513d601f19601f82011682018060405250810190610c949190613647565b9050610cd4868680806020026020016040519081016040528093929190818152602001838360200280828437600092019190915250889250612968915050565b86610d8c828888610ce66001826139d3565b818110610cf557610cf5613a74565b9050602002016020810190610d0a9190613314565b6040516370a0823160e01b81526001600160a01b03898116600483015291909116906370a08231906024015b60206040518083038186803b158015610d4e57600080fd5b505afa158015610d62573d6000803e3d6000fd5b505050506040513d601f19601f82011682018060405250810190610d869190613647565b90612bce565b1015610daa5760405162461bcd60e51b8152600401610487906138e5565b5050505050505050565b6000546001600160a01b03163314610e0e5760405162461bcd60e51b815260206004820181905260248201527f4f776e61626c653a2063616c6c6572206973206e6f7420746865206f776e65726044820152606401610487565b610e186000612be1565b565b8042811015610e3b5760405162461bcd60e51b815260040161048790613840565b6002546001600160a01b03168585610e546001826139d3565b818110610e6357610e63613a74565b9050602002016020810190610e789190613314565b6001600160a01b031614610e9e5760405162461bcd60e51b81526004016104879061386c565b610eb485856000818110610b8c57610b8c613a74565b610ef2858580806020026020016040519081016040528093929190818152602001838360200280828437600092019190915250309250612968915050565b6002546040516370a0823160e01b81523060048201526000916001600160a01b0316906370a082319060240160206040518083038186803b158015610f3657600080fd5b505afa158015610f4a573d6000803e3d6000fd5b505050506040513d601f19601f82011682018060405250810190610f6e9190613647565b905086811015610f905760405162461bcd60e51b8152600401610487906138e5565b600254604051632e1a7d4d60e01b8152600481018390526001600160a01b0390911690632e1a7d4d90602401600060405180830381600087803b158015610fd657600080fd5b505af1158015610fea573d6000803e3d6000fd5b50505050610daa84826121c1565b6060814281101561101b5760405162461bcd60e51b815260040161048790613840565b6002546001600160a01b0316868660008161103857611038613a74565b905060200201602081019061104d9190613314565b6001600160a01b0316146110735760405162461bcd60e51b81526004016104879061386c565b6110b03487878080602002602001604051908101604052809392919081815260200183836020028082843760009201919091525061228f92505050565b91508682600184516110c291906139d3565b815181106110d2576110d2613a74565b602002602001015110156110f85760405162461bcd60e51b8152600401610487906138e5565b60025482516001600160a01b039091169063d0e30db090849060009061112057611120613a74565b60200260200101516040518263ffffffff1660e01b81526004016000604051808303818588803b15801561115357600080fd5b505af1158015611167573d6000803e3d6000fd5b50506002546001600160a01b0316925063a9059cbb915061119490508888600081610bb857610bb8613a74565b846000815181106111a7576111a7613a74565b60200260200101516040518363ffffffff1660e01b81526004016111e09291906001600160a01b03929092168252602082015260400190565b602060405180830381600087803b1580156111fa57600080fd5b505af115801561120e573d6000803e3d6000fd5b505050506040513d601f19601f8201168201806040525081019061123291906135da565b61123e5761123e613a48565b61127d82878780806020026020016040519081016040528093929190818152602001838360200280828437600092019190915250899250612627915050565b5095945050505050565b606081428110156112aa5760405162461bcd60e51b815260040161048790613840565b6112e7888787808060200260200160405190810160405280939291908181526020018383602002808284376000920191909152506127ed92505050565b915086826000815181106112fd576112fd613a74565b602002602001015111156109465760405162461bcd60e51b8152600401610487906137ff565b600081428110156113465760405162461bcd60e51b815260040161048790613840565b6002546113629089906001600160a01b03168989893089611734565b6040516370a0823160e01b81523060048201529093506113ea9150899086906001600160a01b038316906370a082319060240160206040518083038186803b1580156113ad57600080fd5b505afa1580156113c1573d6000803e3d6000fd5b505050506040513d601f19601f820116820180604052508101906113e59190613647565b6120a6565b600254604051632e1a7d4d60e01b8152600481018490526001600160a01b0390911690632e1a7d4d90602401600060405180830381600087803b15801561143057600080fd5b505af1158015611444573d6000803e3d6000fd5b505050506107db84836121c1565b80428110156114735760405162461bcd60e51b815260040161048790613840565b6002546001600160a01b0316858560008161149057611490613a74565b90506020020160208101906114a59190613314565b6001600160a01b0316146114cb5760405162461bcd60e51b81526004016104879061386c565b60025460408051630d0e30db60e41b8152905134926001600160a01b03169163d0e30db091849160048082019260009290919082900301818588803b15801561151357600080fd5b505af1158015611527573d6000803e3d6000fd5b50506002546001600160a01b0316925063a9059cbb915061155490508888600081610bb857610bb8613a74565b6040516001600160e01b031960e084901b1681526001600160a01b03909116600482015260248101849052604401602060405180830381600087803b15801561159c57600080fd5b505af11580156115b0573d6000803e3d6000fd5b505050506040513d601f19601f820116820180604052508101906115d491906135da565b6115e0576115e0613a48565b600086866115ef6001826139d3565b8181106115fe576115fe613a74565b90506020020160208101906116139190613314565b6040516370a0823160e01b81526001600160a01b03878116600483015291909116906370a082319060240160206040518083038186803b15801561165657600080fd5b505afa15801561166a573d6000803e3d6000fd5b505050506040513d601f19601f8201168201806040525081019061168e9190613647565b90506116ce878780806020026020016040519081016040528093929190818152602001838360200280828437600092019190915250899250612968915050565b87610d8c8289896116e06001826139d3565b8181106116ef576116ef613a74565b90506020020160208101906117049190613314565b6040516370a0823160e01b81526001600160a01b038a8116600483015291909116906370a0823190602401610d36565b60008082428110156117585760405162461bcd60e51b815260040161048790613840565b60006117648b8b612413565b6040516323b872dd60e01b81523360048201526001600160a01b03821660248201819052604482018c90529192506323b872dd90606401602060405180830381600087803b1580156117b557600080fd5b505af11580156117c9573d6000803e3d6000fd5b505050506040513d601f19601f820116820180604052508101906117ed91906135da565b5060405163226bf2d160e21b81526001600160a01b03878116600483015260009182918416906389afcb44906024016040805180830381600087803b15801561183557600080fd5b505af1158015611849573d6000803e3d6000fd5b505050506040513d601f19601f8201168201806040525081019061186d91906136c7565b91509150600061187d8e8e612c31565b509050806001600160a01b03168e6001600160a01b0316146118a05781836118a3565b82825b90975095508a8710156118f85760405162461bcd60e51b815260206004820181905260248201527f53756e526f757465723a20494e53554646494349454e545f415f414d4f554e546044820152606401610487565b898610156119485760405162461bcd60e51b815260206004820181905260248201527f53756e526f757465723a20494e53554646494349454e545f425f414d4f554e546044820152606401610487565b505050505097509795505050505050565b60025460009081908190611977908e906001600160a01b0316612413565b9050600087611986578c61198a565b6000195b60405163d505accf60e01b81529091506001600160a01b0383169063d505accf906119c5903390309086908f908e908e908e9060040161377a565b600060405180830381600087803b1580156119df57600080fd5b505af11580156119f3573d6000803e3d6000fd5b50505050611a058e8e8e8e8e8e610463565b909f909e509c50505050505050505050505050565b60008060008342811015611a405760405162461bcd60e51b815260040161048790613840565b611a4e8c8c8c8c8c8c612d1b565b90945092506000611a5f8d8d612413565b9050611a6d8d3383886124f7565b611a798c3383876124f7565b6040516335313c2160e11b81526001600160a01b038881166004830152821690636a62784290602401602060405180830381600087803b158015611abc57600080fd5b505af1158015611ad0573d6000803e3d6000fd5b505050506040513d601f19601f82011682018060405250810190611af49190613647565b92505050985098509895505050505050565b6000546001600160a01b03163314611b605760405162461bcd60e51b815260206004820181905260248201527f4f776e61626c653a2063616c6c6572206973206e6f7420746865206f776e65726044820152606401610487565b6001600160a01b038116611bc55760405162461bcd60e51b815260206004820152602660248201527f4f776e61626c653a206e6577206f776e657220697320746865207a65726f206160448201526564647265737360d01b6064820152608401610487565b611bce81612be1565b50565b60008060008342811015611bf75760405162461bcd60e51b815260040161048790613840565b600254611c12908b906001600160a01b03168b348c8c612d1b565b6002549195509350600090611c31908c906001600160a01b0316612413565b9050611c3f8b3383886124f7565b600260009054906101000a90046001600160a01b03166001600160a01b031663d0e30db0856040518263ffffffff1660e01b81526004016000604051808303818588803b158015611c8f57600080fd5b505af1158015611ca3573d6000803e3d6000fd5b505060025460405163a9059cbb60e01b81526001600160a01b038681166004830152602482018a9052909116935063a9059cbb92506044019050602060405180830381600087803b158015611cf757600080fd5b505af1158015611d0b573d6000803e3d6000fd5b505050506040513d601f19601f82011682018060405250810190611d2f91906135da565b611d3b57611d3b613a48565b6040516335313c2160e11b81526001600160a01b038881166004830152821690636a62784290602401602060405180830381600087803b158015611d7e57600080fd5b505af1158015611d92573d6000803e3d6000fd5b505050506040513d601f19601f82011682018060405250810190611db69190613647565b925083341115611dd357611dd333611dce86346139d3565b6121c1565b505096509650969350505050565b60608142811015611e045760405162461bcd60e51b815260040161048790613840565b6002546001600160a01b03168686600081611e2157611e21613a74565b9050602002016020810190611e369190613314565b6001600160a01b031614611e5c5760405162461bcd60e51b81526004016104879061386c565b611e99878787808060200260200160405190810160405280939291908181526020018383602002808284376000920191909152506127ed92505050565b91503482600081518110611eaf57611eaf613a74565b60200260200101511115611ed55760405162461bcd60e51b8152600401610487906137ff565b60025482516001600160a01b039091169063d0e30db0908490600090611efd57611efd613a74565b60200260200101516040518263ffffffff1660e01b81526004016000604051808303818588803b158015611f3057600080fd5b505af1158015611f44573d6000803e3d6000fd5b50506002546001600160a01b0316925063a9059cbb9150611f7190508888600081610bb857610bb8613a74565b84600081518110611f8457611f84613a74565b60200260200101516040518363ffffffff1660e01b8152600401611fbd9291906001600160a01b03929092168252602082015260400190565b602060405180830381600087803b158015611fd757600080fd5b505af1158015611feb573d6000803e3d6000fd5b505050506040513d601f19601f8201168201806040525081019061200f91906135da565b61201b5761201b613a48565b61205a82878780806020026020016040519081016040528093929190818152602001838360200280828437600092019190915250899250612627915050565b8160008151811061206d5761206d613a74565b602002602001015134111561127d5761127d338360008151811061209357612093613a74565b602002602001015134611dce91906139d3565b604080516001600160a01b038481166024830152604480830185905283518084039091018152606490920183526020820180516001600160e01b031663a9059cbb60e01b1790529151600092839290871691612102919061375e565b6000604051808303816000865af19150503d806000811461213f576040519150601f19603f3d011682016040523d82523d6000602084013e612144565b606091505b509150915081801561216e57508051158061216e57508080602001905181019061216e91906135da565b6121ba5760405162461bcd60e51b815260206004820152601f60248201527f5472616e7366657248656c7065723a205452414e534645525f4641494c4544006044820152606401610487565b5050505050565b604080516000808252602082019092526001600160a01b0384169083906040516121eb919061375e565b60006040518083038185875af1925050503d8060008114612228576040519150601f19603f3d011682016040523d82523d6000602084013e61222d565b606091505b505090508061228a5760405162461bcd60e51b815260206004820152602360248201527f5472616e7366657248656c7065723a204554485f5452414e534645525f46414960448201526213115160ea1b6064820152608401610487565b505050565b60606002825110156122de5760405162461bcd60e51b81526020600482015260186024820152770a6eadc98d2c4e4c2e4f27440929cac82989288bea082a8960431b6044820152606401610487565b815167ffffffffffffffff8111156122f8576122f8613a8a565b604051908082528060200260200182016040528015612321578160200160208202803683370190505b509050828160008151811061233857612338613a74565b60200260200101818152505060005b6001835161235591906139d3565b81101561240c576000806123a785848151811061237457612374613a74565b60200260200101518685600161238a919061397a565b8151811061239a5761239a613a74565b6020026020010151612f63565b915091506123cf8484815181106123c0576123c0613a74565b60200260200101518383613045565b846123db85600161397a565b815181106123eb576123eb613a74565b6020026020010181815250505050808061240490613a2d565b915050612347565b5092915050565b60008060006124228585612c31565b6001546040516bffffffffffffffffffffffff19606085811b8216602084015284901b1660348201529294509092506001600160a01b031690604801604051602081830303815290604052805190602001206040516020016124d69291906001600160f81b0319815260609290921b6bffffffffffffffffffffffff1916600183015260158201527fe6c9b5778aa578689587c301fc4d20f8363cd4a6b1e4577f2214ebf5578b4bfa603582015260550190565b60408051601f19818403018152919052805160209091012095945050505050565b604080516001600160a01b0385811660248301528481166044830152606480830185905283518084039091018152608490920183526020820180516001600160e01b03166323b872dd60e01b179052915160009283929088169161255b919061375e565b6000604051808303816000865af19150503d8060008114612598576040519150601f19603f3d011682016040523d82523d6000602084013e61259d565b606091505b50915091508180156125c75750805115806125c75750808060200190518101906125c791906135da565b61261f5760405162461bcd60e51b8152602060048201526024808201527f5472616e7366657248656c7065723a205452414e534645525f46524f4d5f46416044820152631253115160e21b6064820152608401610487565b505050505050565b60005b6001835161263891906139d3565b8110156127e75760008084838151811061265457612654613a74565b60200260200101518584600161266a919061397a565b8151811061267a5761267a613a74565b60200260200101519150915060006126928383612c31565b5090506000876126a386600161397a565b815181106126b3576126b3613a74565b60200260200101519050600080836001600160a01b0316866001600160a01b0316146126e1578260006126e5565b6000835b91509150600060028a516126f991906139d3565b88106127055788612732565b612732868b6127158b600261397a565b8151811061272557612725613a74565b6020026020010151612413565b905061273e8787612413565b6001600160a01b031663022c0d9f84848460006040519080825280601f01601f19166020018201604052801561277b576020820181803683370190505b506040518563ffffffff1660e01b815260040161279b949392919061392a565b600060405180830381600087803b1580156127b557600080fd5b505af11580156127c9573d6000803e3d6000fd5b505050505050505050505080806127df90613a2d565b91505061262a565b50505050565b606060028251101561283c5760405162461bcd60e51b81526020600482015260186024820152770a6eadc98d2c4e4c2e4f27440929cac82989288bea082a8960431b6044820152606401610487565b815167ffffffffffffffff81111561285657612856613a8a565b60405190808252806020026020018201604052801561287f578160200160208202803683370190505b50905082816001835161289291906139d3565b815181106128a2576128a2613a74565b6020026020010181815250506000600183516128be91906139d3565b90505b801561240c57600080612903856128d96001866139d3565b815181106128e9576128e9613a74565b602002602001015186858151811061239a5761239a613a74565b9150915061292b84848151811061291c5761291c613a74565b6020026020010151838361311d565b846129376001866139d3565b8151811061294757612947613a74565b6020026020010181815250505050808061296090613a16565b9150506128c1565b60005b6001835161297991906139d3565b81101561228a5760008084838151811061299557612995613a74565b6020026020010151858460016129ab919061397a565b815181106129bb576129bb613a74565b60200260200101519150915060006129d38383612c31565b50905060006129e28484612413565b9050600080600080846001600160a01b0316630902f1ac6040518163ffffffff1660e01b815260040160606040518083038186803b158015612a2357600080fd5b505afa158015612a37573d6000803e3d6000fd5b505050506040513d601f19601f82011682018060405250810190612a5b91906135f7565b506001600160701b031691506001600160701b03169150600080876001600160a01b03168a6001600160a01b031614612a95578284612a98565b83835b6040516370a0823160e01b81526001600160a01b038a81166004830152929450909250612ad3918491908d16906370a0823190602401610d36565b9550612ae0868383613045565b945050505050600080856001600160a01b0316886001600160a01b031614612b0a57826000612b0e565b6000835b91509150600060028c51612b2291906139d3565b8a10612b2e578a612b3e565b612b3e888d6127158d600261397a565b6040805160008152602081019182905263022c0d9f60e01b9091529091506001600160a01b0387169063022c0d9f90612b80908690869086906024810161392a565b600060405180830381600087803b158015612b9a57600080fd5b505af1158015612bae573d6000803e3d6000fd5b505050505050505050505050508080612bc690613a2d565b91505061296b565b6000612bda82846139d3565b9392505050565b600080546001600160a01b038381166001600160a01b0319831681178455604051919092169283917f8be0079c531659141344cd1fd0a4f28419497f9722a3daafe3b4186f6b6457e09190a35050565b600080826001600160a01b0316846001600160a01b03161415612c965760405162461bcd60e51b815260206004820152601f60248201527f53756e4c6962726172793a204944454e544943414c5f414444524553534553006044820152606401610487565b826001600160a01b0316846001600160a01b031610612cb6578284612cb9565b83835b90925090506001600160a01b038216612d145760405162461bcd60e51b815260206004820152601860248201527f53756e4c6962726172793a205a45524f5f4144445245535300000000000000006044820152606401610487565b9250929050565b60015460405163e6a4390560e01b81526001600160a01b0388811660048301528781166024830152600092839283929091169063e6a439059060440160206040518083038186803b158015612d6f57600080fd5b505afa158015612d83573d6000803e3d6000fd5b505050506040513d601f19601f82011682018060405250810190612da79190613331565b6001600160a01b03161415612e3f576001546040516364e329cb60e11b81526001600160a01b038a8116600483015289811660248301529091169063c9c6539690604401602060405180830381600087803b158015612e0557600080fd5b505af1158015612e19573d6000803e3d6000fd5b505050506040513d601f19601f82011682018060405250810190612e3d9190613331565b505b600080612e4c8a8a612f63565b91509150816000148015612e5e575080155b15612e6e57879350869250612f56565b6000612e7b8984846131f0565b9050878111612edf5785811015612ed45760405162461bcd60e51b815260206004820181905260248201527f53756e526f757465723a20494e53554646494349454e545f425f414d4f554e546044820152606401610487565b889450925082612f54565b6000612eec8984866131f0565b905089811115612efe57612efe613a48565b87811015612f4e5760405162461bcd60e51b815260206004820181905260248201527f53756e526f757465723a20494e53554646494349454e545f415f414d4f554e546044820152606401610487565b94508793505b505b5050965096945050505050565b6000806000612f728585612c31565b509050612f7f8585612413565b50600080612f8d8787612413565b6001600160a01b0316630902f1ac6040518163ffffffff1660e01b815260040160606040518083038186803b158015612fc557600080fd5b505afa158015612fd9573d6000803e3d6000fd5b505050506040513d601f19601f82011682018060405250810190612ffd91906135f7565b506001600160701b031691506001600160701b03169150826001600160a01b0316876001600160a01b031614613034578082613037565b81815b909890975095505050505050565b60008084116130a45760405162461bcd60e51b815260206004820152602560248201527f53756e4c6962726172793a20494e53554646494349454e545f494e5055545f416044820152641353d5539560da1b6064820152608401610487565b6000831180156130b45750600082115b6130d05760405162461bcd60e51b8152600401610487906138a3565b60006130de856126f761328a565b905060006130ec828561328a565b90506000613106836131008861271061328a565b90613296565b90506131128183613992565b979650505050505050565b600080841161317d5760405162461bcd60e51b815260206004820152602660248201527f53756e4c6962726172793a20494e53554646494349454e545f4f55545055545f604482015265105353d5539560d21b6064820152608401610487565b60008311801561318d5750600082115b6131a95760405162461bcd60e51b8152600401610487906138a3565b60006131c16127106131bb868861328a565b9061328a565b905060006131d56126f76131bb8689612bce565b90506131e660016131008385613992565b9695505050505050565b60008084116132415760405162461bcd60e51b815260206004820152601f60248201527f53756e4c6962726172793a20494e53554646494349454e545f414d4f554e54006044820152606401610487565b6000831180156132515750600082115b61326d5760405162461bcd60e51b8152600401610487906138a3565b82613278858461328a565b6132829190613992565b949350505050565b6000612bda82846139b4565b6000612bda828461397a565b60008083601f8401126132b457600080fd5b50813567ffffffffffffffff8111156132cc57600080fd5b6020830191508360208260051b8501011115612d1457600080fd5b80516001600160701b03811681146132fe57600080fd5b919050565b803560ff811681146132fe57600080fd5b60006020828403121561332657600080fd5b8135612bda81613aa0565b60006020828403121561334357600080fd5b8151612bda81613aa0565b600080600080600080600060e0888a03121561336957600080fd5b873561337481613aa0565b9650602088013561338481613aa0565b955060408801359450606088013593506080880135925060a08801356133a981613aa0565b8092505060c0880135905092959891949750929550565b60008060008060008060008060008060006101608c8e0312156133e257600080fd5b8b356133ed81613aa0565b9a5060208c01356133fd81613aa0565b995060408c0135985060608c0135975060808c0135965060a08c013561342281613aa0565b955060c08c0135945060e08c013561343981613ab5565b93506134486101008d01613303565b92506101208c013591506101408c013590509295989b509295989b9093969950565b600080600080600080600080610100898b03121561348757600080fd5b883561349281613aa0565b975060208901356134a281613aa0565b965060408901359550606089013594506080890135935060a0890135925060c08901356134ce81613aa0565b8092505060e089013590509295985092959890939650565b60008060008060008060c087890312156134ff57600080fd5b863561350a81613aa0565b9550602087013594506040870135935060608701359250608087013561352f81613aa0565b8092505060a087013590509295509295509295565b6000806000806000806000806000806101408b8d03121561356457600080fd5b8a3561356f81613aa0565b995060208b0135985060408b0135975060608b0135965060808b013561359481613aa0565b955060a08b0135945060c08b01356135ab81613ab5565b93506135b960e08c01613303565b92506101008b013591506101208b013590509295989b9194979a5092959850565b6000602082840312156135ec57600080fd5b8151612bda81613ab5565b60008060006060848603121561360c57600080fd5b613615846132e7565b9250613623602085016132e7565b9150604084015163ffffffff8116811461363c57600080fd5b809150509250925092565b60006020828403121561365957600080fd5b5051919050565b60008060008060006080868803121561367857600080fd5b85359450602086013567ffffffffffffffff81111561369657600080fd5b6136a2888289016132a2565b90955093505060408601356136b681613aa0565b949793965091946060013592915050565b600080604083850312156136da57600080fd5b505080516020909101519092909150565b60008060008060008060a0878903121561370457600080fd5b8635955060208701359450604087013567ffffffffffffffff81111561372957600080fd5b61373589828a016132a2565b909550935050606087013561374981613aa0565b80925050608087013590509295509295509295565b600082516137708184602087016139ea565b9190910192915050565b6001600160a01b0397881681529590961660208601526040850193909352606084019190915260ff16608083015260a082015260c081019190915260e00190565b6020808252825182820181905260009190848201906040850190845b818110156137f3578351835292840192918401916001016137d7565b50909695505050505050565b60208082526021908201527f53756e526f757465723a204558434553534956455f494e5055545f414d4f554e6040820152601560fa1b606082015260800190565b60208082526012908201527114dd5b949bdd5d195c8e881156141254915160721b604082015260600190565b60208082526017908201527f53756e526f757465723a20494e56414c49445f50415448000000000000000000604082015260600190565b60208082526022908201527f53756e4c6962726172793a20494e53554646494349454e545f4c495155494449604082015261545960f01b606082015260800190565b60208082526025908201527f53756e526f757465723a20494e53554646494349454e545f4f55545055545f416040820152641353d5539560da1b606082015260800190565b84815283602082015260018060a01b038316604082015260806060820152600082518060808401526139638160a08501602087016139ea565b601f01601f19169190910160a00195945050505050565b6000821982111561398d5761398d613a5e565b500190565b6000826139af57634e487b7160e01b600052601260045260246000fd5b500490565b60008160001904831182151516156139ce576139ce613a5e565b500290565b6000828210156139e5576139e5613a5e565b500390565b60005b83811015613a055781810151838201526020016139ed565b838111156127e75750506000910152565b600081613a2557613a25613a5e565b506000190190565b6000600019821415613a4157613a41613a5e565b5060010190565b634e487b7160e01b600052600160045260246000fd5b634e487b7160e01b600052601160045260246000fd5b634e487b7160e01b600052603260045260246000fd5b634e487b7160e01b600052604160045260246000fd5b6001600160a01b0381168114611bce57600080fd5b8015158114611bce57600080fdfea2646970667358221220e403d562c2ab903f510f12a0d20013c96e06c9749504d2a195d189ff5bd518ef64736f6c63430008060033",
  "immutableReferences": {},
  "source": "// SPDX-License-Identifier: MIT\npragma solidity ^0.8.0;\n\nimport './libraries/TransferHelper.sol';\nimport './interfaces/ISunFactory.sol';\nimport './interfaces/ISunPair.sol';\nimport './interfaces/IERC20.sol';\nimport './interfaces/ISunRouter02.sol';\nimport './interfaces/IWETH.sol';\nimport './libraries/SafeMath.sol';\nimport './libraries/Ownable.sol';\n\ncontract SunRouter is ISunRouter02, Ownable {\n    using SafeMath for uint256;\n\n    address public override factory;\n    address public override WETH;\n    uint256 public constant MASK = type(uint256).max;\n\n    modifier ensure(uint256 deadline) {\n        require(deadline >= block.timestamp, 'SunRouter: EXPIRED');\n        _;\n    }\n\n    constructor(address _factory, address _WETH) {\n        factory = _factory;\n        WETH = _WETH;\n    }\n\n    receive() external payable {\n        assert(msg.sender == WETH); // only accept ETH via fallback from the WETH contract\n    }\n\n    // returns sorted token addresses, used to handle return values from pairs sorted in this order\n    function sortTokens(address tokenA, address tokenB) internal pure returns (address token0, address token1) {\n        require(tokenA != tokenB, 'SunLibrary: IDENTICAL_ADDRESSES');\n        (token0, token1) = tokenA < tokenB ? (tokenA, tokenB) : (tokenB, tokenA);\n        require(token0 != address(0), 'SunLibrary: ZERO_ADDRESS');\n    }\n\n    // calculates the CREATE2 address for a pair without making any external calls\n    function pairFor(address tokenA, address tokenB) internal view returns (address pair) {\n        (address token0, address token1) = sortTokens(tokenA, tokenB);\n        pair = address(\n            uint160(\n                uint(\n                    keccak256(\n                        abi.encodePacked(\n                            hex'ff',\n                            factory,\n                            keccak256(abi.encodePacked(token0, token1)),\n                            hex'e6c9b5778aa578689587c301fc4d20f8363cd4a6b1e4577f2214ebf5578b4bfa'\n                            // hex'factory init_code_hash'\n                        )\n                    )\n                )\n            )\n        );\n    }\n\n    // fetches and sorts the reserves for a pair\n    function getReserves(address tokenA, address tokenB) internal view returns (uint256 reserveA, uint256 reserveB) {\n        (address token0, ) = sortTokens(tokenA, tokenB);\n        pairFor(tokenA, tokenB);\n        (uint256 reserve0, uint256 reserve1, ) = ISunPair(pairFor(tokenA, tokenB)).getReserves();\n        (reserveA, reserveB) = tokenA == token0 ? (reserve0, reserve1) : (reserve1, reserve0);\n    }\n\n    // given some amount of an asset and pair reserves, returns an equivalent amount of the other asset\n    function quote(\n        uint256 amountA,\n        uint256 reserveA,\n        uint256 reserveB\n    ) internal pure returns (uint256 amountB) {\n        require(amountA > 0, 'SunLibrary: INSUFFICIENT_AMOUNT');\n        require(reserveA > 0 && reserveB > 0, 'SunLibrary: INSUFFICIENT_LIQUIDITY');\n        amountB = amountA.mul(reserveB) / reserveA;\n    }\n\n    // given an input amount of an asset and pair reserves, returns the maximum output amount of the other asset\n    function getAmountOut(\n        uint256 amountIn,\n        uint256 reserveIn,\n        uint256 reserveOut\n    ) internal pure returns (uint256 amountOut) {\n        require(amountIn > 0, 'SunLibrary: INSUFFICIENT_INPUT_AMOUNT');\n        require(reserveIn > 0 && reserveOut > 0, 'SunLibrary: INSUFFICIENT_LIQUIDITY');\n        uint256 amountInWithFee = amountIn.mul(9975);\n        uint256 numerator = amountInWithFee.mul(reserveOut);\n        uint256 denominator = reserveIn.mul(10000).add(amountInWithFee);\n        amountOut = numerator / denominator;\n    }\n\n    // given an output amount of an asset and pair reserves, returns a required input amount of the other asset\n    function getAmountIn(\n        uint256 amountOut,\n        uint256 reserveIn,\n        uint256 reserveOut\n    ) internal pure returns (uint256 amountIn) {\n        require(amountOut > 0, 'SunLibrary: INSUFFICIENT_OUTPUT_AMOUNT');\n        require(reserveIn > 0 && reserveOut > 0, 'SunLibrary: INSUFFICIENT_LIQUIDITY');\n        uint256 numerator = reserveIn.mul(amountOut).mul(10000);\n        uint256 denominator = reserveOut.sub(amountOut).mul(9975);\n        amountIn = (numerator / denominator).add(1);\n    }\n\n    // performs chained getAmountOut calculations on any number of pairs\n    function getAmountsOut(uint256 amountIn, address[] memory path) internal view returns (uint256[] memory amounts) {\n        require(path.length >= 2, 'SunLibrary: INVALID_PATH');\n        amounts = new uint256[](path.length);\n        amounts[0] = amountIn;\n        for (uint256 i; i < path.length - 1; i++) {\n            (uint256 reserveIn, uint256 reserveOut) = getReserves(path[i], path[i + 1]);\n            amounts[i + 1] = getAmountOut(amounts[i], reserveIn, reserveOut);\n        }\n    }\n\n    // performs chained getAmountIn calculations on any number of pairs\n    function getAmountsIn(uint256 amountOut, address[] memory path) internal view returns (uint256[] memory amounts) {\n        require(path.length >= 2, 'SunLibrary: INVALID_PATH');\n        amounts = new uint256[](path.length);\n        amounts[amounts.length - 1] = amountOut;\n        for (uint256 i = path.length - 1; i > 0; i--) {\n            (uint256 reserveIn, uint256 reserveOut) = getReserves(path[i - 1], path[i]);\n            amounts[i - 1] = getAmountIn(amounts[i], reserveIn, reserveOut);\n        }\n    }\n\n    // **** ADD LIQUIDITY ****\n    function _addLiquidity(\n        address tokenA,\n        address tokenB,\n        uint256 amountADesired,\n        uint256 amountBDesired,\n        uint256 amountAMin,\n        uint256 amountBMin\n    ) internal virtual returns (uint256 amountA, uint256 amountB) {\n        // create the pair if it doesn't exist yet\n        if (ISunFactory(factory).getPair(tokenA, tokenB) == address(0)) {\n            ISunFactory(factory).createPair(tokenA, tokenB);\n        }\n        (uint256 reserveA, uint256 reserveB) = getReserves(tokenA, tokenB);\n        if (reserveA == 0 && reserveB == 0) {\n            (amountA, amountB) = (amountADesired, amountBDesired);\n        } else {\n            uint256 amountBOptimal = quote(amountADesired, reserveA, reserveB);\n            if (amountBOptimal <= amountBDesired) {\n                require(amountBOptimal >= amountBMin, 'SunRouter: INSUFFICIENT_B_AMOUNT');\n                (amountA, amountB) = (amountADesired, amountBOptimal);\n            } else {\n                uint256 amountAOptimal = quote(amountBDesired, reserveB, reserveA);\n                assert(amountAOptimal <= amountADesired);\n                require(amountAOptimal >= amountAMin, 'SunRouter: INSUFFICIENT_A_AMOUNT');\n                (amountA, amountB) = (amountAOptimal, amountBDesired);\n            }\n        }\n    }\n\n    function addLiquidity(\n        address tokenA,\n        address tokenB,\n        uint256 amountADesired,\n        uint256 amountBDesired,\n        uint256 amountAMin,\n        uint256 amountBMin,\n        address to,\n        uint256 deadline\n    )\n        external\n        virtual\n        override\n        ensure(deadline)\n        returns (\n            uint256 amountA,\n            uint256 amountB,\n            uint256 liquidity\n        )\n    {\n        (amountA, amountB) = _addLiquidity(tokenA, tokenB, amountADesired, amountBDesired, amountAMin, amountBMin);\n        address pair = pairFor(tokenA, tokenB);\n        TransferHelper.safeTransferFrom(tokenA, msg.sender, pair, amountA);\n        TransferHelper.safeTransferFrom(tokenB, msg.sender, pair, amountB);\n        liquidity = ISunPair(pair).mint(to);\n    }\n\n    function addLiquidityETH(\n        address token,\n        uint256 amountTokenDesired,\n        uint256 amountTokenMin,\n        uint256 amountETHMin,\n        address to,\n        uint256 deadline\n    )\n        external\n        payable\n        virtual\n        override\n        ensure(deadline)\n        returns (\n            uint256 amountToken,\n            uint256 amountETH,\n            uint256 liquidity\n        )\n    {\n        (amountToken, amountETH) = _addLiquidity(\n            token,\n            WETH,\n            amountTokenDesired,\n            msg.value,\n            amountTokenMin,\n            amountETHMin\n        );\n        address pair = pairFor(token, WETH);\n        TransferHelper.safeTransferFrom(token, msg.sender, pair, amountToken);\n        IWETH(WETH).deposit{value: amountETH}();\n        assert(IWETH(WETH).transfer(pair, amountETH));\n        liquidity = ISunPair(pair).mint(to);\n        // refund dust eth, if any\n        if (msg.value > amountETH) TransferHelper.safeTransferETH(msg.sender, msg.value - amountETH);\n    }\n\n    // **** REMOVE LIQUIDITY ****\n    function removeLiquidity(\n        address tokenA,\n        address tokenB,\n        uint256 liquidity,\n        uint256 amountAMin,\n        uint256 amountBMin,\n        address to,\n        uint256 deadline\n    ) public virtual override ensure(deadline) returns (uint256 amountA, uint256 amountB) {\n        address pair = pairFor(tokenA, tokenB);\n        ISunPair(pair).transferFrom(msg.sender, pair, liquidity); // send liquidity to pair\n        (uint256 amount0, uint256 amount1) = ISunPair(pair).burn(to);\n        (address token0, ) = sortTokens(tokenA, tokenB);\n        (amountA, amountB) = tokenA == token0 ? (amount0, amount1) : (amount1, amount0);\n        require(amountA >= amountAMin, 'SunRouter: INSUFFICIENT_A_AMOUNT');\n        require(amountB >= amountBMin, 'SunRouter: INSUFFICIENT_B_AMOUNT');\n    }\n\n    function removeLiquidityETH(\n        address token,\n        uint256 liquidity,\n        uint256 amountTokenMin,\n        uint256 amountETHMin,\n        address to,\n        uint256 deadline\n    ) public virtual override ensure(deadline) returns (uint256 amountToken, uint256 amountETH) {\n        (amountToken, amountETH) = removeLiquidity(\n            token,\n            WETH,\n            liquidity,\n            amountTokenMin,\n            amountETHMin,\n            address(this),\n            deadline\n        );\n        TransferHelper.safeTransfer(token, to, amountToken);\n        IWETH(WETH).withdraw(amountETH);\n        TransferHelper.safeTransferETH(to, amountETH);\n    }\n\n    function removeLiquidityWithPermit(\n        address tokenA,\n        address tokenB,\n        uint256 liquidity,\n        uint256 amountAMin,\n        uint256 amountBMin,\n        address to,\n        uint256 deadline,\n        bool approveMax,\n        uint8 v,\n        bytes32 r,\n        bytes32 s\n    ) external virtual override returns (uint256 amountA, uint256 amountB) {\n        address pair = pairFor(tokenA, tokenB);\n        uint256 value = approveMax ? MASK : liquidity;\n        ISunPair(pair).permit(msg.sender, address(this), value, deadline, v, r, s);\n        (amountA, amountB) = removeLiquidity(tokenA, tokenB, liquidity, amountAMin, amountBMin, to, deadline);\n    }\n\n    function removeLiquidityETHWithPermit(\n        address token,\n        uint256 liquidity,\n        uint256 amountTokenMin,\n        uint256 amountETHMin,\n        address to,\n        uint256 deadline,\n        bool approveMax,\n        uint8 v,\n        bytes32 r,\n        bytes32 s\n    ) external virtual override returns (uint256 amountToken, uint256 amountETH) {\n        address pair = pairFor(token, WETH);\n        uint256 value = approveMax ? MASK : liquidity;\n        ISunPair(pair).permit(msg.sender, address(this), value, deadline, v, r, s);\n        (amountToken, amountETH) = removeLiquidityETH(token, liquidity, amountTokenMin, amountETHMin, to, deadline);\n    }\n\n    // **** REMOVE LIQUIDITY (supporting fee-on-transfer tokens) ****\n    function removeLiquidityETHSupportingFeeOnTransferTokens(\n        address token,\n        uint256 liquidity,\n        uint256 amountTokenMin,\n        uint256 amountETHMin,\n        address to,\n        uint256 deadline\n    ) public virtual override ensure(deadline) returns (uint256 amountETH) {\n        (, amountETH) = removeLiquidity(token, WETH, liquidity, amountTokenMin, amountETHMin, address(this), deadline);\n        TransferHelper.safeTransfer(token, to, IERC20(token).balanceOf(address(this)));\n        IWETH(WETH).withdraw(amountETH);\n        TransferHelper.safeTransferETH(to, amountETH);\n    }\n\n    function removeLiquidityETHWithPermitSupportingFeeOnTransferTokens(\n        address token,\n        uint256 liquidity,\n        uint256 amountTokenMin,\n        uint256 amountETHMin,\n        address to,\n        uint256 deadline,\n        bool approveMax,\n        uint8 v,\n        bytes32 r,\n        bytes32 s\n    ) external virtual override returns (uint256 amountETH) {\n        address pair = pairFor(token, WETH);\n        uint256 value = approveMax ? MASK : liquidity;\n        ISunPair(pair).permit(msg.sender, address(this), value, deadline, v, r, s);\n        amountETH = removeLiquidityETHSupportingFeeOnTransferTokens(\n            token,\n            liquidity,\n            amountTokenMin,\n            amountETHMin,\n            to,\n            deadline\n        );\n    }\n\n    // **** SWAP ****\n    // requires the initial amount to have already been sent to the first pair\n    function _swap(\n        uint256[] memory amounts,\n        address[] memory path,\n        address _to\n    ) internal virtual {\n        for (uint256 i; i < path.length - 1; i++) {\n            (address input, address output) = (path[i], path[i + 1]);\n            (address token0, ) = sortTokens(input, output);\n            uint256 amountOut = amounts[i + 1];\n            (uint256 amount0Out, uint256 amount1Out) = input == token0\n                ? (uint256(0), amountOut)\n                : (amountOut, uint256(0));\n            address to = i < path.length - 2 ? pairFor(output, path[i + 2]) : _to;\n            ISunPair(pairFor(input, output)).swap(amount0Out, amount1Out, to, new bytes(0));\n        }\n    }\n\n    function swapExactTokensForTokens(\n        uint256 amountIn,\n        uint256 amountOutMin,\n        address[] calldata path,\n        address to,\n        uint256 deadline\n    ) external virtual override ensure(deadline) returns (uint256[] memory amounts) {\n        amounts = getAmountsOut(amountIn, path);\n        require(amounts[amounts.length - 1] >= amountOutMin, 'SunRouter: INSUFFICIENT_OUTPUT_AMOUNT');\n        TransferHelper.safeTransferFrom(path[0], msg.sender, pairFor(path[0], path[1]), amounts[0]);\n        _swap(amounts, path, to);\n    }\n\n    function swapTokensForExactTokens(\n        uint256 amountOut,\n        uint256 amountInMax,\n        address[] calldata path,\n        address to,\n        uint256 deadline\n    ) external virtual override ensure(deadline) returns (uint256[] memory amounts) {\n        amounts = getAmountsIn(amountOut, path);\n        require(amounts[0] <= amountInMax, 'SunRouter: EXCESSIVE_INPUT_AMOUNT');\n        TransferHelper.safeTransferFrom(path[0], msg.sender, pairFor(path[0], path[1]), amounts[0]);\n        _swap(amounts, path, to);\n    }\n\n    function swapExactETHForTokens(\n        uint256 amountOutMin,\n        address[] calldata path,\n        address to,\n        uint256 deadline\n    ) external payable virtual override ensure(deadline) returns (uint256[] memory amounts) {\n        require(path[0] == WETH, 'SunRouter: INVALID_PATH');\n        amounts = getAmountsOut(msg.value, path);\n        require(amounts[amounts.length - 1] >= amountOutMin, 'SunRouter: INSUFFICIENT_OUTPUT_AMOUNT');\n        IWETH(WETH).deposit{value: amounts[0]}();\n        assert(IWETH(WETH).transfer(pairFor(path[0], path[1]), amounts[0]));\n        _swap(amounts, path, to);\n    }\n\n    function swapTokensForExactETH(\n        uint256 amountOut,\n        uint256 amountInMax,\n        address[] calldata path,\n        address to,\n        uint256 deadline\n    ) external virtual override ensure(deadline) returns (uint256[] memory amounts) {\n        require(path[path.length - 1] == WETH, 'SunRouter: INVALID_PATH');\n        amounts = getAmountsIn(amountOut, path);\n        require(amounts[0] <= amountInMax, 'SunRouter: EXCESSIVE_INPUT_AMOUNT');\n        TransferHelper.safeTransferFrom(path[0], msg.sender, pairFor(path[0], path[1]), amounts[0]);\n        _swap(amounts, path, address(this));\n        IWETH(WETH).withdraw(amounts[amounts.length - 1]);\n        TransferHelper.safeTransferETH(to, amounts[amounts.length - 1]);\n    }\n\n    function swapExactTokensForETH(\n        uint256 amountIn,\n        uint256 amountOutMin,\n        address[] calldata path,\n        address to,\n        uint256 deadline\n    ) external virtual override ensure(deadline) returns (uint256[] memory amounts) {\n        require(path[path.length - 1] == WETH, 'SunRouter: INVALID_PATH');\n        amounts = getAmountsOut(amountIn, path);\n        require(amounts[amounts.length - 1] >= amountOutMin, 'SunRouter: INSUFFICIENT_OUTPUT_AMOUNT');\n        TransferHelper.safeTransferFrom(path[0], msg.sender, pairFor(path[0], path[1]), amounts[0]);\n        _swap(amounts, path, address(this));\n        IWETH(WETH).withdraw(amounts[amounts.length - 1]);\n        TransferHelper.safeTransferETH(to, amounts[amounts.length - 1]);\n    }\n\n    function swapETHForExactTokens(\n        uint256 amountOut,\n        address[] calldata path,\n        address to,\n        uint256 deadline\n    ) external payable virtual override ensure(deadline) returns (uint256[] memory amounts) {\n        require(path[0] == WETH, 'SunRouter: INVALID_PATH');\n        amounts = getAmountsIn(amountOut, path);\n        require(amounts[0] <= msg.value, 'SunRouter: EXCESSIVE_INPUT_AMOUNT');\n        IWETH(WETH).deposit{value: amounts[0]}();\n        assert(IWETH(WETH).transfer(pairFor(path[0], path[1]), amounts[0]));\n        _swap(amounts, path, to);\n        // refund dust eth, if any\n        if (msg.value > amounts[0]) TransferHelper.safeTransferETH(msg.sender, msg.value - amounts[0]);\n    }\n\n    // **** SWAP (supporting fee-on-transfer tokens) ****\n    // requires the initial amount to have already been sent to the first pair\n    function _swapSupportingFeeOnTransferTokens(address[] memory path, address _to) internal virtual {\n        for (uint256 i; i < path.length - 1; i++) {\n            (address input, address output) = (path[i], path[i + 1]);\n            (address token0, ) = sortTokens(input, output);\n            ISunPair pair = ISunPair(pairFor(input, output));\n            uint256 amountInput;\n            uint256 amountOutput;\n            {\n                // scope to avoid stack too deep errors\n                (uint256 reserve0, uint256 reserve1, ) = pair.getReserves();\n                (uint256 reserveInput, uint256 reserveOutput) = input == token0\n                    ? (reserve0, reserve1)\n                    : (reserve1, reserve0);\n                amountInput = IERC20(input).balanceOf(address(pair)).sub(reserveInput);\n                amountOutput = getAmountOut(amountInput, reserveInput, reserveOutput);\n            }\n            (uint256 amount0Out, uint256 amount1Out) = input == token0\n                ? (uint256(0), amountOutput)\n                : (amountOutput, uint256(0));\n            address to = i < path.length - 2 ? pairFor(output, path[i + 2]) : _to;\n            pair.swap(amount0Out, amount1Out, to, new bytes(0));\n        }\n    }\n\n    function swapExactTokensForTokensSupportingFeeOnTransferTokens(\n        uint256 amountIn,\n        uint256 amountOutMin,\n        address[] calldata path,\n        address to,\n        uint256 deadline\n    ) external virtual override ensure(deadline) {\n        TransferHelper.safeTransferFrom(path[0], msg.sender, pairFor(path[0], path[1]), amountIn);\n        uint256 balanceBefore = IERC20(path[path.length - 1]).balanceOf(to);\n        _swapSupportingFeeOnTransferTokens(path, to);\n        require(\n            IERC20(path[path.length - 1]).balanceOf(to).sub(balanceBefore) >= amountOutMin,\n            'SunRouter: INSUFFICIENT_OUTPUT_AMOUNT'\n        );\n    }\n\n    function swapExactETHForTokensSupportingFeeOnTransferTokens(\n        uint256 amountOutMin,\n        address[] calldata path,\n        address to,\n        uint256 deadline\n    ) external payable virtual override ensure(deadline) {\n        require(path[0] == WETH, 'SunRouter: INVALID_PATH');\n        uint256 amountIn = msg.value;\n        IWETH(WETH).deposit{value: amountIn}();\n        assert(IWETH(WETH).transfer(pairFor(path[0], path[1]), amountIn));\n        uint256 balanceBefore = IERC20(path[path.length - 1]).balanceOf(to);\n        _swapSupportingFeeOnTransferTokens(path, to);\n        require(\n            IERC20(path[path.length - 1]).balanceOf(to).sub(balanceBefore) >= amountOutMin,\n            'SunRouter: INSUFFICIENT_OUTPUT_AMOUNT'\n        );\n    }\n\n    function swapExactTokensForETHSupportingFeeOnTransferTokens(\n        uint256 amountIn,\n        uint256 amountOutMin,\n        address[] calldata path,\n        address to,\n        uint256 deadline\n    ) external virtual override ensure(deadline) {\n        require(path[path.length - 1] == WETH, 'SunRouter: INVALID_PATH');\n        TransferHelper.safeTransferFrom(path[0], msg.sender, pairFor(path[0], path[1]), amountIn);\n        _swapSupportingFeeOnTransferTokens(path, address(this));\n        uint256 amountOut = IERC20(WETH).balanceOf(address(this));\n        require(amountOut >= amountOutMin, 'SunRouter: INSUFFICIENT_OUTPUT_AMOUNT');\n        IWETH(WETH).withdraw(amountOut);\n        TransferHelper.safeTransferETH(to, amountOut);\n    }\n}\n",
  "sourcePath": "/Users/kurosu/dex_sunswap/core/contracts/SunRouter.sol",
  "compiler": {
    "name": "solc",
    "version": "0.8.6+commit.11564f7e.Emscripten.clang"
  },
  "schemaVersion": "3.4.1",
  "updatedAt": "2021-07-12T03:35:40.260Z",
  "networkType": "ethereum",
  "devdoc": {
    "kind": "dev",
    "methods": {
      "owner()": {
        "details": "Returns the address of the current owner."
      },
      "renounceOwnership()": {
        "details": "Leaves the contract without owner. It will not be possible to call `onlyOwner` functions anymore. Can only be called by the current owner. NOTE: Renouncing ownership will leave the contract without an owner, thereby removing any functionality that is only available to the owner."
      },
      "transferOwnership(address)": {
        "details": "Transfers ownership of the contract to a new account (`newOwner`). Can only be called by the current owner."
      }
    },
    "version": 1
  },
  "userdoc": {
    "kind": "user",
    "methods": {},
    "version": 1
  }
}